S012000050574D5F4472617765722E737265635A
S11300000C948D000C94AA000C94AA000C94AA00E1
S11300100C94AA000C94AA000C94AA000C94AA00B4
S11300200C94AA000C94AA000C94AA000C94AA00A4
S11300300C94AA000C94AA000C94AA000C94AA0094
S11300400C94AA000C94AA000C94AA000C94AA0084
S11300500C94AA00F0047305730573057305CF04AB
S11300607305730573057305730573057305FB0445
S1130070E5047305060511051C05270532053D0534
S1130080480553055E056905730573057305DA04B0
S1130090730573057305B103BC03C703D203DD0302
S11300A0E803F303FE03090414041F042A043504BB
S11300B040044B04560461046C04770482048D04E8
S11300C09804A304AE04B904C4047305730573054A
S11300D0730573057305B103BC03C703D203DD03C2
S11300E0E803F303FE03090414041F042A0435047B
S11300F040044B04560461046C04770482048D04A8
S11301009804A304AE04B904C404D908D908DD08CA
S1130110E108E508E908ED08ED0811241FBECFE564
S1130120D8E0DEBFCDBF10E0A0E6B0E0E4E9F7E13F
S113013002C005900D92A83AB107D9F720E0A8EAC9
S1130140B0E001C01D92AB3AB207E1F70E947A0613
S11301500C94C80B0C9400000E94D2020E94540616
S11301608CE990E00E94B40883EA90E00E94D307EF
S113017008958F929F92AF92BF92CF92DF92EF92A7
S1130180FF920F931F93CF93DF93CDB7DEB72897DA
S11301900FB6F894DEBF0FBECDBF8C0119821A8250
S11301A01B821C821D821E821F821886AE014F5F35
S11301B05F4F68E070E080E00E940D08CD80DE8033
S11301C0EF80F884F801C186D286E386F4868980BC
S11301D09A80AB80BC8081829282A382B482A70180
S11301E0960160E070E080E89FE30E949D09F801B9
S11301F0658776878787908B20E030E048EC52E46F
S1130200C501B4010E94CC0AA70196010E949D0970
S11302100E940F0AF801608328960FB6F894DEBF97
S11302200FBECDBFDF91CF911F910F91FF90EF9043
S1130230DF90CF90BF90AF909F908F900895AF9232
S1130240BF92CF92DF92EF92FF920F931F93CF93BF
S1130250DF93CDB7DEB7EC970FB6F894DEBF0FBED1
S1130260CDBF5C016A017B010E94540680E00E94BC
S1130270400687E0E0E6F0E0DE01119601900D9281
S11302808A95E1F718E0FE013896DF01812F1D926F
S11302908A95E9F7CE0101960E949105D5011D9634
S11302A06D917D918D919C9150970E94F30585E00D
S11302B0E7E9F0E0DE01509601900D928A95E1F7AE
S11302C0CE0140960E94910582E00E94400687E09C
S11302D0EFE6F0E0DE01559601900D928A95E1F784
S11302E0FE017C96DF01812F1D928A95E9F7CE01EC
S11302F045960E949105D5016C9170E080E090E0F4
S11303000E949E0580917E0090917F009DA38CA306
S113031080918000909181009FA38EA318A6CE01A6
S113032084960E94910584E00E94400687E0E3E8F9
S1130330F0E0DE01999601900D928A95E1F7FE01B5
S1130340F096DF011D921A95E9F7CE0189960E9475
S11303509105F50161857285838594850E94F30575
S1130360809192009091930099AF88AF809194000E
S1130370909195009BAF8AAF1CAECE01C8960E94A7
S1130380910586E00E94400610E04EC020E430E46F
S11303904EE752E062E070E080E090E00E944303A8
S11303A01B5F00E00CC022E032E042E052E062E079
S11303B070E080E090E00E9443031B5F0F5FD50173
S11303C011966D917D918D919C911497A701960141
S11303D00E949D090E940F0A061728F322E032E0CA
S11303E04EE750E460E470E080E090E00E94430354
S11303F01B5F00E00CC020E430E440E450E460E41F
S113040070E080E090E00E9443031B5F0F5FF50102
S11304106581768187819085A70196010E949D0957
S11304200E940F0A061738F3183708F4AFCF85E097
S11304300E94400620E03EE348E05CE16AE270E0AE
S113044080E090E00E94430310E00BC028E038E015
S113045048E058E068E070E080E090E00E944303E8
S11304601F5FD50111966D917D918D919C9114978B
S1130470A70196010E949D090E940F0A161730F3E6
S113048028E038E048E058E068E070E080E090E080
S11304900E94430310E00BC028E038E048E058E035
S11304A068E070E080E090E00E9443031F5FF50184
S11304B06581768187819085A70196010E949D09B7
S11304C00E940F0A161740F32AE23CE148E05EE37B
S11304D060E070E080E090E00E944303EC960FB689
S11304E0F894DEBF0FBECDBFDF91CF911F910F9166
S11304F0FF90EF90DF90CF90BF90AF900895813040
S113050089F028F08230C9F0833011F1089540E079
S113051064E081E00E94210740E065E081E00E9400
S11305202107089541E064E081E00E94210740E052
S113053065E081E00E942107089540E064E081E0E5
S11305400E94210741E065E081E00E9421070895AF
S113055041E064E081E00E94210741E065E081E040
S11305600E9421070895CF93C82F40E062E081E004
S11305700E94210740E061E081E00E9421076C2F86
S113058080E00E94C10741E060E081E00E94210711
S113059000C000C0000040E060E081E00E9421074C
S11305A0CF91089541E060E081E00E94AB0641E014
S11305B062E081E00E94AB0641E061E081E00E94DC
S11305C0AB0641E066E081E00E94AB0641E064E0F6
S11305D081E00E94AB0641E065E081E00E94AB0649
S11305E061E080E00E94970741E066E081E00E94BC
S11305F0210783E00E947F028EE30E94B30288EB0E
S11306000E94B3021092AA0080E40E94B3021092E6
S1130610A90080EC0E94B3028FE30E94B30281E040
S11306200E947F021092A8000895CF93C82F41E042
S113063062E081E00E94210740E061E081E00E94E5
S113064021076C2F80E00E94C10741E060E081E057
S11306500E94210700C000C0000040E060E081E08B
S11306600E942107CF91089540E066E081E00E9456
S1130670210783E08A95F1F7000041E066E081E01C
S11306800E94210708959F92AF92BF92CF92DF926A
S1130690EF92FF920F931F93CF93DF93922EA32E8B
S11306A0B42EC52ED62EE72EF82ED92FC0E030C09A
S11306B08091AA0088540E94B3028091A900805CB2
S11306C00E94B3020C2F10E0000F111F000F111F26
S11306D0000F111F292D3A2D4B2D5C2D6D2D7E2DD4
S11306E08F2D9D2F0E947B0B822F0E9415038091DA
S11306F0A9008F5F8093A900803448F08091A800FE
S1130700811105C082E00E947F021092A900CF5F90
S1130710C53070F2DF91CF911F910F91FF90EF9050
S1130720DF90CF90BF90AF909F900895E82F91E015
S11307308091A800811190E081E02091A9002933E3
S113074008F080E0892B09F4EBC18E2F90E0FC01C6
S1130750B097EB35F10508F0C6C1E65DFF4F0C9488
S1130760680B2CE732E141E152E16CE770E080E094
S113077090E00E944303B7C12FE739E449E459E408
S113078066E370E080E090E00E944303ACC12EE396
S113079031E441E451E461E470E080E090E00E94DF
S11307A04303A1C12FE731E441E45EE360E070E07C
S11307B080E090E00E94430396C12FE739E449E4C6
S11307C059E461E470E080E090E00E9443038BC14F
S11307D02FE739E049E059E061E070E080E090E023
S11307E00E94430380C12EE331E441E459E26AE705
S11307F070E080E090E00E94430375C12FE738E089
S113080048E058E06FE770E080E090E00E94430326
S11308106AC121E431E44FE751E461E470E080E02F
S113082090E00E9443035FC120E230E441E45FE3CF
S113083061E070E080E090E00E94430354C12FE740
S113084038E044E152E261E470E080E090E00E942C
S1130850430349C12FE730E440E450E460E470E02E
S113086080E090E00E9443033EC12FE732E04CE079
S113087052E06FE770E080E090E00E94430333C1F0
S11308802FE732E04CE150E26FE770E080E090E067
S11308900E94430328C12EE331E441E451E46EE3B2
S11308A070E080E090E00E9443031DC12FE739E02F
S11308B049E059E066E070E080E090E00E94430384
S11308C012C12EE331E441E551E26EE570E080E0CF
S11308D090E00E94430307C12FE739E049E159E260
S11308E066E470E080E090E00E944303FCC026E2EE
S11308F039E449E459E462E370E080E090E00E9466
S11309004303F1C021E031E04FE751E061E070E0E2
S113091080E090E00E944303E6C02FE330E440E42B
S113092050E46FE370E080E090E00E944303DBC09A
S11309302FE130E240E450E26FE170E080E090E0CB
S11309400E944303D0C02FE330E440E250E46FE35D
S113095070E080E090E00E944303C5C023E634E1E8
S113096048E054E163E670E080E090E00E944303D5
S1130970BAC023E03CE040E75CE063E070E080E084
S113098090E00E944303AFC021E631E549E455E419
S113099063E470E080E090E00E944303A4C023EC91
S11309A033E748E15EEC63EC70E080E090E00E94A5
S11309B0430399C024E234E244E254E264E270E086
S11309C080E090E00E9443038EC020E030E740E7DF
S11309D050E760E070E080E090E00E94430383C051
S11309E020E030E040E050E060E070E080E090E043
S11309F00E94430378C028E138E148E158E168E106
S1130A0070E080E090E00E9443036DC02EE331E586
S1130A1049E455E46EE370E080E090E00E94430313
S1130A2062C020E032E44FE750E460E070E080E030
S1130A3090E00E94430357C022E431E641E559E4C3
S1130A4066E470E080E090E00E9443034CC021E43F
S1130A5039E449E459E466E370E080E090E00E9400
S1130A60430341C028E134E142E15FE760E170E023
S1130A7080E090E00E94430336C02FE439E449E467
S1130A8059E461E370E080E090E00E9443032BC0EE
S1130A902CE73AE449E459E461E370E080E090E053
S1130AA00E94430320C023E031E041E759E067E0BE
S1130AB070E080E090E00E94430315C026E339E42F
S1130AC049E459E466E370E080E090E00E94430367
S1130AD00AC026E039E449E459E26EE170E080E0BE
S1130AE090E00E9443038091AA0088540E94B302BC
S1130AF08091A900805C0E94B30280E00E941503EB
S1130B008091A9008F5F8093A900803448F0809180
S1130B10A800811105C082E00E947F021092A90002
S1130B200895CF93DF93EC0103C00E9496032196AE
S1130B3088818111FACFDF91CF910895CF92DF920E
S1130B40EF92FF920F931F93CF93DF9300D000D0C7
S1130B501F92CDB7DEB76B017C0199235CF48DE263
S1130B600E949603F094E094D094C094C11CD11CCC
S1130B70E11CF11C1A821982FE01339683E0DF0125
S1130B801D928A95E9F78E010F5F1F4FC701B601C9
S1130B902AE030E040E050E00E94490B605DF8013B
S1130BA061938F01C22ED32EE42EF52E1C141D0446
S1130BB01E041F045CF3D8018E918D010E949603DC
S1130BC0CE01019680179107B1F70F900F900F9007
S1130BD00F900F90DF91CF911F910F91FF90EF90A5
S1130BE0DF90CF9008958F929F92AF92BF92CF9251
S1130BF0DF92EF92FF92CF93DF934B015C010E944F
S1130C000F0A6B01E12CF12CC701B6010E949E056D
S1130C108EE20E949603C701B6010E943E0A9B0120
S1130C20AC01C501B4010E943009D0E01CC020E031
S1130C3030E040E251E40E94CC0A6B017C010E9446
S1130C400F0AC62F80E38C0F0E9496036C2F70E06E
S1130C5080E090E00E94400A9B01AC01C701B6010C
S1130C600E943009DF5FD33010F3DF91CF91FF9002
S1130C70EF90DF90CF90BF90AF909F908F900895AA
S1130C80CF93883078F4C82F81E00E947F02C0930C
S1130C90AA0088EB8C0F0E94B3021092A90080E492
S1130CA00E94B302CF910895CF93DF93D0E013C095
S1130CB08D2F0E94400683E00E947F02C0E008C09E
S1130CC080E48C0F0E94B30280E00E941503CF5F82
S1130CD0C034B0F3DF5FD83058F30E94340381E0AE
S1130CE00E947F021092A80080E00E944006DF91DB
S1130CF0CF910895CF93DF93CDB7DEB761970FB649
S1130D00F894DEBF0FBECDBF0E94AC00FE01319649
S1130D1081E1DF011D928A95E9F7CE0101960E94D7
S1130D20B9006A857B858C859D8520E030E040EAAA
S1130D3050E40E949D09AB01BC01CE0101960E94C2
S1130D401F01BFEF23EC89E0B15020408040E1F760
S1130D5000C00000E2CF843008F072C0683008F0B0
S1130D606FC0423008F06CC0813001F130F0823045
S1130D70B1F1833009F44CC00895413059F42AB3D9
S1130D8081E090E002C0880F991F6A95E2F7822BF8
S1130D908ABB08952AB381E090E002C0880F991FAE
S1130DA06A95E2F7809582238ABB0895413059F40D
S1130DB027B381E090E002C0880F991F6A95E2F79B
S1130DC0822B87BB089527B381E090E002C0880F8F
S1130DD0991F6A95E2F78095822387BB0895413075
S1130DE059F424B381E090E002C0880F991F6A95FA
S1130DF0E2F7822B84BB089524B381E090E002C023
S1130E00880F991F6A95E2F78095822384BB089521
S1130E10413059F421B381E090E002C0880F991F5A
S1130E206A95E2F7822B81BB089521B381E090E0BB
S1130E3002C0880F991F6A95E2F78095822381BBCF
S1130E400895843008F072C0683008F06FC04230F2
S1130E5008F06CC0813001F130F08230B1F18330A0
S1130E6009F44CC00895413059F42BB381E090E06B
S1130E7002C0880F991F6A95E2F7822B8BBB0895F5
S1130E802BB381E090E002C0880F991F6A95E2F7C6
S1130E90809582238BBB0895413059F428B381E0B7
S1130EA090E002C0880F991F6A95E2F7822B88BBF5
S1130EB0089528B381E090E002C0880F991F6A95D5
S1130EC0E2F78095822388BB0895413059F425B315
S1130ED081E090E002C0880F991F6A95E2F7822BA7
S1130EE085BB089525B381E090E002C0880F991F67
S1130EF06A95E2F78095822385BB0895413059F4C1
S1130F0022B381E090E002C0880F991F6A95E2F74E
S1130F10822B82BB089522B381E090E002C0880F47
S1130F20991F6A95E2F78095822382BB08958430E5
S1130F3038F59FEF960F9E3F18F1813069F028F045
S1130F40823089F08330B1F008956F3F19F48FEF48
S1130F508ABB08951ABA08956F3F19F48FEF87BBBF
S1130F60089517BA08956F3F19F48FEF84BB08955D
S1130F7014BA08956F3F19F48FEF81BB089511BA25
S1130F800895843078F4813041F028F0823039F0CB
S1130F90833039F008956BBB089568BB089565BB31
S1130FA0089562BB0895FC0181B38F7B81BB1FBC94
S1130FB01EBC9EB58181892B8EBD8EB5928140E485
S1130FC0949F90011124282B2EBD29B7938130E2E0
S1130FD0939FC0011124822B89BF1DBC1CBC17BC6C
S1130FE016BC08959EB59F7B9EBD9EB580E4689F08
S1130FF0B0011124692B6EBD08951DBC1CBC08955D
S113100086B597B5089508B605FE05C088B7806211
S113101088BF81E0089580E008954F925F926F92B7
S11310207F928F929F92AF92BF92CF92DF92EF9274
S1131030FF920F931F93CF93DF93EB018A0188B73D
S1131040806288BF61E080E00E94F20780E00E9435
S113105003088823D9F360E080E00E94F20780E06F
S11310600E94FD0788B7806288BFC12CD12C76010D
S113107009C008B602FE06C088B7846088BF8FEF37
S1131080E81AF80A80E00E940308882391F380E0BC
S11310900E940008C80ED91EE11CF11C61E080E02A
S11310A00E94F20780E00E94FD0788B7806288BF33
S11310B006C008B602FE03C088B7846088BF80E01B
S11310C00E9403088823A9F380E00E9400084C01D1
S11310D0A12CB12C2E01612C712CA7019601C30106
S11310E0B2010E94390B0E943E0A20E030E04AE738
S11310F054E40E94CC0A20E034E244E75BE40E941A
S11311009D09F8016083718382839383C701B601CB
S1131110680D791D8A1D9B1DA30192010E94390B44
S11311200E943E0A20E030E04AE754E40E94CC0AE0
S113113020E034E244E75BE40E949D09F801648303
S1131140758386839783DF91CF911F910F91FF90D1
S1131150EF90DF90CF90BF90AF909F908F907F9053
S11311606F905F904F900895DC0187B3886087BBD0
S113117013BE23B711969C911197990F990F990F4C
S1131180922B906493BF23B713969C9113979295D7
S1131190907F922B906293BF12968C911297482F56
S11311A050E048305105E8F4FA01EB57FF4F0C9436
S11311B0680B93B7892B83BF14C093B7892B83BF64
S11311C010C093B7892B83BF0CC093B7892B83BFFF
S11311D008C093B7892B83BF04C093B78250892B6F
S11311E083BF1CBE13968C911397882319F081300A
S11311F0B9F034C016966C918FEF689FB00111243A
S1131200072E000C880B990B0E94400A20E030E066
S113121048EC52E40E949D090E940F0A6CBF1EC054
S113122016966C9170E080E090E00E94400A9B0169
S1131230AC0160E070E088EC92E40E94300920E0A8
S113124030E04FE753E40E94CC0A20E030E048EC61
S113125052E40E949D090E940F0A6CBF12BE0895B9
S11312605058BB27AA270E9448090C94920A0E944E
S1131270840A38F00E948B0A20F039F49F3F19F455
S113128026F40C94810A0EF4E095E7FB0C947B0A97
S1131290E92F0E94A30A58F3BA1762077307840759
S11312A0950720F079F4A6F50C94C50A0EF4E095A0
S11312B00B2EBA2FA02D0B01B90190010C01CA010C
S11312C0A0011124FF27591B99F0593F50F4503EB7
S11312D068F11A16F040A22F232F342F4427585FA9
S11312E0F3CF469537952795A795F0405395C9F7C1
S11312F07EF41F16BA0B620B730B840BBAF0915079
S1131300A1F0FF0FBB1F661F771F881FC2F70EC017
S1131310BA0F621F731F841F48F4879577956795EA
S1131320B795F7959E3F08F0B0CF9395880F08F0D6
S11313309927EE0F9795879508950E94B1090C940B
S1131340920A0E948B0A58F00E94840A40F029F401
S11313505F3F29F00C947B0A51110C94C60A0C943B
S1131360810A0E94A30A68F39923B1F3552391F3E8
S1131370951B550BBB27AA2762177307840738F000
S11313809F5F5F4F220F331F441FAA1FA9F335D05D
S11313900E2E3AF0E0E832D091505040E695001C11
S11313A0CAF72BD0FE2F29D0660F771F881FBB1FCB
S11313B0261737074807AB07B0E809F0BB0B802DA9
S11313C0BF01FF2793585F4F3AF09E3F510578F0D5
S11313D00C947B0A0C94C60A5F3FE4F3983ED4F362
S11313E0869577956795B795F7959F5FC9F7880FA9
S11313F0911D9695879597F90895E1E0660F771FFB
S1131400881FBB1F621773078407BA0720F0621B8B
S1131410730B840BBA0BEE1F88F7E09508950E94B6
S1131420AB0A88F09F5798F0B92F9927B751B0F0BD
S1131430E1F0660F771F881F991F1AF0BA95C9F754
S113144014C0B13091F00E94C50AB1E008950C9423
S1131450C50A672F782F8827B85F39F0B93FCCF3D6
S1131460869577956795B395D9F73EF490958095D1
S1131470709561957F4F8F4F9F4F0895E89409C0F1
S113148097FB3EF490958095709561957F4F8F4FB3
S11314909F4F9923A9F0F92F96E9BB279395F695C9
S11314A0879577956795B795F111F8CFFAF4BB0F47
S11314B011F460FF1BC06F5F7F4F8F4F9F4F16C0AB
S11314C0882311F096E911C0772321F09EE8872F35
S11314D0762F05C0662371F096E8862F70E060E0F1
S11314E02AF09A95660F771F881FDAF7880F96956A
S11314F0879597F9089597F99F6780E870E060E011
S113150008959FEF80EC089500240A941616170698
S113151018060906089500240A94121613061406E0
S113152005060895092E0394000C11F4882352F043
S1131530BB0F40F4BF2B11F460FF04C06F5F7F4FFB
S11315408F4F9F4F089557FD9058440F551F59F0E2
S11315505F3F71F04795880F97FB991F61F09F3F9C
S113156079F087950895121613061406551FF2CFC5
S11315704695F1DF08C0161617061806991FF1CF15
S113158086957105610508940895E894BB2766273C
S11315907727CB0197F908950E94DF0A0C94920AE9
S11315A00E94840A38F00E948B0A20F0952311F0DF
S11315B00C947B0A0C94810A11240C94C60A0E9490
S11315C0A30A70F3959FC1F3950F50E0551F629FD6
S11315D0F001729FBB27F00DB11D639FAA27F00D88
S11315E0B11DAA1F649F6627B00DA11D661F829FAF
S11315F02227B00DA11D621F739FB00DA11D621F94
S1131600839FA00D611D221F749F3327A00D611DB0
S1131610231F849F600D211D822F762F6A2F112492
S11316209F5750409AF0F1F088234AF0EE0FFF1FC5
S1131630BB1F661F771F881F91505040A9F79E3F1C
S1131640510580F00C947B0A0C94C60A5F3FE4F3C6
S1131650983ED4F3869577956795B795F795E79572
S11316609F5FC1F7FE2B880F911D9695879597F97B
S11316700895DB018F939F930E946E0BBF91AF91EE
S1131680A29F800D911DA39F900DB29F900D1124D8
S11316900895052E97FB1EF400940E94600B57FDDD
S11316A007D00E94970B07FC03D04EF40C94600BF8
S11316B050954095309521953F4F4F4F5F4F08957A
S11316C090958095709561957F4F8F4F9F4F0895AA
S11316D0EE0FFF1F0590F491E02D09940E94B90BC1
S11316E0A59F900DB49F900DA49F800D911D112472
S11316F0089597FB10F8169400080F93083098F09B
S11317000850232F342F452F562F672F782F892FDA
S1131710902DF4CF05949795879577956795579570
S11317204795379527950A95AAF70F910895A1E251
S11317301A2EAA1BBB1BFD010DC0AA1FBB1FEE1F47
S1131740FF1FA217B307E407F50720F0A21BB30B92
S1131750E40BF50B661F771F881F991F1A9469F70E
S113176060957095809590959B01AC01BD01CF016A
S11317700895A29FB001B39FC001A39F700D811D66
S11317801124911DB29F700D811D1124911D089586
S1071790F894FFCFF7
S1131794467265713D000000000000000000004432
S11317A47574793D0000000000000000000020254D
S11317B400000054696D653D000000000000000055
S11317C400006D73000000206B487A0000010401DE
S10B17D4F000320002000000E5
S9030000FC
